:020000040800F2
:10000000D00400209D010008F71400084F140008D8
:10001000F514000879060008BD160008000000006D
:10002000000000000000000000000000D1150008E2
:100030007B0600080000000019150008D315000811
:10004000B7010008B7010008B7010008B7010008B0
:10005000B7010008B7010008B7010008B7010008A0
:10006000B7010008B7010008B7010008B701000890
:10007000B7010008B7010008B7010008B701000880
:10008000B7010008B7010008B7010008B701000870
:10009000B7010008B7010008B7010008B701000860
:1000A000B7010008B7010008B7010008B701000850
:1000B000B7010008B7010008B7010008B701000840
:1000C000B7010008B7010008B7010008B701000830
:1000D000B7010008B7010008B7010008B701000820
:1000E000B7010008B7010008B7010008B701000810
:1000F000B7010008B7010008B7010008B701000800
:10010000B7010008B7010008B7010008B7010008EF
:10011000B7010008B7010008B7010008B7010008DF
:10012000B7010008B7010008B7010008B7010008CF
:10013000B7010008B7010008B7010008B7010008BF
:10014000B7010008B7010008B7010008B7010008AF
:10015000B7010008B7010008B7010008B70100089F
:10016000B7010008B7010008B7010008B70100088F
:10017000B7010008B7010008B7010008000000003F
:10018000B7010008B7010008DFF80CD000F068F8EC
:1001900000480047DD160008D004002006488047CC
:1001A00006480047FEE7FEE7FEE7FEE7FEE7FEE75C
:1001B000FEE7FEE7FEE7FEE7691600088901000892
:1001C0002DE9F05F0546002092469B46884606468C
:1001D000814640241BE0284641464746224600F01F
:1001E0002FF853465A46C01A914110D3114618466B
:1001F000224600F016F82D1A67EB01084F462246FA
:100200000120002100F00DF817EB00094E41201EDF
:10021000A4F10104DFDC484631462A464346BDE8E6
:10022000F09F202A04DB203A00FA02F100207047F8
:100230009140C2F1200320FA03F319439040704724
:10024000202A04DB203A21FA02F00021704721FA2B
:1002500002F3D040C2F12002914008431946704792
:10026000064C074D06E0E06840F0010394E8070003
:1002700098471034AC42F6D3FFF78AFF10170008F6
:100280003017000830B55148016BB0F90A30CA1078
:10029000C188A2EB41025A43036BD212046BC1EB3B
:1002A0002313C1EB24114B431913B0F90C305943FC
:1002B00002EBA13101EB8102803212128262444AC8
:1002C000B0F9165002EB610293105B43DC126C43F1
:1002D000B0F914505B13554304EB4504458AA41050
:1002E00004EB0544B0F910506B43DD10B0F90E304B
:1002F000534305EB63029214038902F500425A430B
:10030000D3130FD0426BC2F58012A2EB243240F619
:10031000354462438263B2F1004F05D25200B2FB12
:10032000F3F204E0002218E0B2FBF3F25200D3082B
:1003300082635B43B0F91C405B0B63431C13B0F951
:100340001A5093086B4304EB6333B0F9184023440D
:1003500002EB23126423B2FBF3F28263426A038C42
:100360009203A2EB0352B0F92230A1F5963103FBC0
:10037000112290F9023044784B4361434FF400441A
:100380009B1204EBE1214B43A10101EBA321B0F946
:100390001E3002F58042594301F50051D2138913F2
:1003A0004A43D11349430378C9115943B2EB211190
:1003B00001D5002103E0B1F1C85F00DD0549091353
:1003C000CA1701EB92518912C16230BD00000020B2
:1003D0000006FFFF6079FE1870B5294D012210213B
:1003E000284600F035FA0A2000F048F900221021D2
:1003F000284600F02DFA234C74204FF47A762070B2
:10040000252060703346022221461F4800F05AFE24
:1004100001221021284600F01BFA0A2000F02EF9D4
:1004200000221021284600F013FA75202070A02029
:100430006070334602222146134800F043FE012239
:100440001021284600F004FA0A2000F017F90022D3
:100450001021284600F0FCF9722020700120607005
:10046000334602222146084800F02CFE01221021CA
:10047000284600F0EDF9BDE870400A2000F0FEB813
:100480000000024003000020540000202DE9F0414C
:10049000564F00221021384600F0DAF9544E8820D9
:1004A0000A23307001223146524800F00BFE5149B8
:1004B0007823182258314F4800F05CFD01221021AA
:1004C000384600F0C5F90A2000F0D8F8494CF51E6E
:1004D000583400222078617800EB0120E880A07871
:1004E000E17800EB012068812079617900EB01203F
:1004F000A881A079E17900EB01202881207A617A36
:1005000000EB0120E881A07AE17A00EB012028824B
:10051000207B617B00EB01206882A07BE17B00EB0C
:100520000120A882207C617C00EB0120E882A07C75
:10053000E17C00EB01202883207D617D00EB012020
:100540006883A07DE17D00EB0120A883A0203070AE
:100550001021384600F07CF90A230122E91C2548C5
:1005600000F0B0FD7823012204F11801214800F0C9
:1005700001FD01221021384600F06AF90A2000F03E
:100580007DF8207E2870E12030700022102138464E
:1005900000F05EF90A230122E91C164800F092FDE2
:1005A0007823072204F11901124800F0E3FC01222C
:1005B0001021384600F04CF90A2000F05FF8607E08
:1005C000A17E00EB0120E883E07E6870607F227FDF
:1005D000014662F31F112984A17F00F0F00000EBB7
:1005E00001106884E07FA870BDE8F081000002403F
:1005F000030000205400002010B5FFF7EDFE1B4C57
:1006000000221021204600F023F91949F7200A237F
:1006100008700122174800F055FD15490A230822E9
:100620003931144800F0A6FC01221021204600F0C8
:100630000FF90F483930C1780279090301EB021133
:10064000427901EB1212A0F13C010A63027843786F
:10065000120302EB0312837802EB13124A63C2798E
:10066000807902EB0020486210BD000000000240CB
:100670000300002054000020FEE7704770B50446D8
:1006800000F0ECF80546601C02D0044800780444F1
:1006900000F0E4F8401BA042FAD370BD44000020F3
:1006A0002DE9F84FDFF87CB100224FF001084FF040
:1006B000030A4FF00F090BF1040E00BF0B6808FA94
:1006C00002F42340A3426ED14D68022D01D0122DB9
:1006D0000ED1D50800EB850CDCF820505607F70E3C
:1006E00009FA07F6B5430E69BE402E43CCF82060E8
:1006F000066855000F790AFA05FC07F0030726EA99
:100700000C06AF40374307604E68012E05D0022E1D
:1007100003D0112E01D0122E0ED18668CF6826EAA2
:100720000C06AF40374387604668A6430C79C4F394
:100730000014944034434460C6688C6826EA0C0672
:10074000AC403443C4604C68E40065D5364C256841
:1007500045F480452560246822F0030504F48044B4
:100760000094324C2E19D6F8084895072F0F09FA35
:1007700007F5AC432E4DA84201D1002524E02D4DB4
:10078000A84201D101251FE02B4DA84201D102252D
:100790001AE02A4DA84201D1032515E0284DA842B0
:1007A00002D1042510E037E0264DA84201D10525ED
:1007B0000AE0254DA84201D1062505E0234DA842B7
:1007C00001D1072500E00825BD402543C6F808589B
:1007D000DBF800405D464E689C43F60300D51C43A1
:1007E0002C60DEF8004075464E689C43B60300D589
:1007F0001C432C600B4D08352C684E689C43F60258
:1008000000D51C432C60074D0C352C684E689C436A
:10081000B60200D51C432C60521C102AFFF44EAFC8
:10082000BDE8F88F003C01404438024000300140F0
:10083000000002400004024000080240000C024098
:10084000001002400014024000180240001C024048
:100850000AB1816170470904FBE700000148806824
:10086000704700004400002002488168027811446B
:1008700081607047440000200B4810B5016841F4C6
:1008800000710160016841F480610160016841F418
:1008900080710160032000F08BF8002000F006F862
:1008A00000F024F8002010BD003C024070B50D4D52
:1008B00004464FF47A712878B1FBF0F00A490968D0
:1008C000B1FBF0F000F0ABFD48B9102C07D20022CC
:1008D0002146501E00F04CF800206C6070BD0120D5
:1008E00070BD000044000020500000201F4808B5E3
:1008F000016841F480410160006800F4804000908C
:100900001A48001F016841F080510160006800F042
:1009100080500090032000F04BF8002211466FF049
:100920000B0000F025F8002211466FF00A0000F0DD
:100930001FF8002211466FF0090000F019F800229C
:100940001146501F00F014F800221146101F00F04D
:100950000FF800221146901E00F00AF80022BDE8B0
:1009600008401146501E00F003B800004438024011
:10097000F0B40E4B1B680C46C3F30223C3F107050A
:10098000042D00D90425191D072901D2002300E0F8
:10099000DB1E012606FA05F1491E214099409E40C2
:1009A000761E16403143F0BC00F0A6BD0CED00E011
:1009B000064900F0070208684FF6FF03184040EAB6
:1009C0000220034A10430860704700000CED00E06D
:1009D0000000FA052DE9F0470E46050065D0DFF866
:1009E0001481D8F80000F7B200F00F00B04207D22F
:1009F00088F80070D8F8000000F00F00B04254D121
:100A000028683D4C810712D5400703D5206840F483
:100A1000E05020602878000703D5206840F460404B
:100A200020602068A96820F0F00008432060287842
:100A3000C0072DD0304968680839012812D0022833
:100A400013D0032811D00968890700292DDA2168FD
:100A500021F0030101432160FFF700FF814641F2CD
:100A6000883A0EE009688903EFE709688901ECE735
:100A7000FFF7F4FEA0EB0901514502D90320BDE8C0
:100A8000F0872068696800F00C00B0EB810FEFD1AF
:100A9000D8F80010404601F00F01B14207D90770A5
:100AA000006800F00F00B04201D00120E7E728788D
:100AB000400705D52068E96820F4E050084320602D
:100AC0002878000706D52068296920F4604040EAAC
:100AD000C100206000F01CF82168084AC1F303112E
:100AE000515CC840064908600020FFF7DFFE002087
:100AF000C5E70000003C024008380240FE1600082E
:100B0000500000200148006870470000500000209D
:100B1000154810B5006810F00C02144813D01449A1
:100B2000042A0FD0082A0ED10F4C241F22682368F4
:100B300002F03F025B0207D52068C0F38810A0FBDB
:100B4000010106E0084610BD2168C1F38811A1FB30
:100B500000010023FFF734FB2168C1F30141491C68
:100B60004900B0FBF1F010BD083802400024F40049
:100B700040787D012DE9F84F050076D02878DFF820
:100B8000F8B2BE4CC00749D0DBF800105846C1F39C
:100B90008101012908D00068C0F3810002280AD130
:100BA000201D0068400206D52068800336D568689D
:100BB0000028E2D032E06868B0F5803F10D0B0F590
:100BC000A02F206810D020F480302060206820F40E
:100BD000802020606868A0B1FFF740FE06460CE068
:100BE000206840F48030F4E740F480202060F7E78C
:100BF000FFF734FE801B642873D820688003F7D584
:100C00000CE0FFF72BFE064605E000BFFFF726FECF
:100C1000801B6428F0D820688003F7D42878DFF898
:100C2000608280074FF000093ED5DBF8001058467F
:100C300011F00C0F09D00068C0F3810002280BD11D
:100C40008D48001F0068400206D42068800715D533
:100C5000E868012809D111E0E868B8B10120C8F8B6
:100C60000000FFF7FBFD064605E002E1FFF7F6FD99
:100C7000801B0228C0D820688007F7D52068296922
:100C800020F0F80040EAC10020600DE0C8F80090B4
:100C9000FFF7E4FD064604E0FFF7E0FD801B0228B5
:100CA0001FD820688007F7D42878000722D5724E15
:100CB000744869696C3671B101210160FFF7CEFD9E
:100CC000074604E0FFF7CAFDC01B022809D83068B8
:100CD0008007F7D50EE0C0F80090FFF7BFFD07468C
:100CE00005E083E0FFF7BAFDC01B02287ED830681C
:100CF0008007F7D42878400768D5DFF87CA1002763
:100D00000AF1380ADAF80000C0000BD4DAF8001053
:100D100041F08051CAF80010DAF80000012700F015
:100D200080500090584E3068C00510D4306840F4B0
:100D300080703060FFF792FD009005E0FFF78EFDB8
:100D40000099401A022851D83068C005F6D54A4E9D
:100D5000A868683601280FD00528306810D020F028
:100D600001003060306820F004003060A868B8B13D
:100D7000FFF774FD00900FE0306840F00100F4E7E9
:100D800040F004003060F7E7FFF768FD0099411A72
:100D900041F28830814264D830688007F4D50EE093
:100DA000FFF75CFD009007E0FFF758FD0099411A3E
:100DB00041F28830814254D830688007F4D42FB192
:100DC000DAF8001021F08051CAF80010A869C0B309
:100DD000DBF80010C1F3810102294AD002284846FD
:100DE00007D0C8F86000FFF739FD00E039E005469C
:100DF0003AE04746C8F86000FFF730FD064604E0D9
:100E0000FFF72CFD801B02282BD820688001F7D427
:100E1000D5E907010843A96A1C4A490802EB0141C8
:100E20006A6A41EA8211084395F82C1040EA016190
:100E30001148001F016001203866FFF70FFD0546CD
:100E400005E014E0FFF70AFD401B022809D82068DE
:100E50008001F7D50BE000BFFFF700FD401B022823
:100E600002D90320BDE8F88F20688001F4D4002067
:100E7000F8E70120F6E70000083802400038024099
:100E800000004742800E4742007000400000FFFF14
:100E900070B5040005D00025A56294F8510010B18A
:100EA00006E0012070BD84F85050204600F030F874
:100EB000022084F851002068016821F0400101609F
:100EC000D4E901010843D4E90312114308436169DD
:100ED0000843218B01F400710843E1690843216A4A
:100EE0000843A16A084321680860A069042101EA57
:100EF0001040616A0843216848602068C16921F494
:100F00000061C1616565012084F85100002070BD59
:100F1000F0B50068134987B0884220D112480024F8
:100F2000016841F4804101600068022500F48040BE
:100F300005900C20CDE9000502AA0326052782E8CA
:100F4000D00069460948FFF7ABFB6802CDE9000510
:100F500002AA694682E8D0000548FFF7A1FB07B066
:100F6000F0BD000000380040403802400008024058
:100F7000000402402DE9F84F0446406800269846D8
:100F800017460D464FF00409B0F5827F01D1A068E5
:100F900090B194F85000012819D04FF0010B84F85B
:100FA00050B0FFF75BFC009094F851004FF0000A3E
:100FB00001280ED002267FE084F8519013460A469D
:100FC0002046CDF8008000F031F9BDE8F88F02200E
:100FD000FBE7002D6FD0002F6DD084F85190C4F83E
:100FE00054A0A563A787E787C4F830A0A4F834A06D
:100FF000A4F836A0C4F840A0C4F844A0A0684FF4F8
:101000000047B84204D12068016821F480410160A2
:1010100020680168490603D4016841F0400101607D
:10102000E068B8B133E020688168C90706D0007B6A
:1010300005F8010BE08F401EE0870BE0B8F1000FD0
:1010400023D0B8F1FF3F05D0FFF708FC0099411A03
:1010500041451AD2E08F0028E5D11BE02068816865
:10106000C90706D0C06825F8020BE08F401EE08754
:101070000DE0B8F1000F08D0B8F1FF3F07D0FFF73F
:10108000EDFB0099411A414501D3032614E0E08F9E
:101090000028E3D16068B0F5827F0AD1A068B84229
:1010A00002D0B0F5806F04D12068016821F04001C2
:1010B0000160606D00B1012684F851B084F850A041
:1010C000304682E72DE9F84F044690F8500000269C
:1010D000994617460D4601280DD04FF0010B84F8B4
:1010E00050B0FFF7BBFB804694F85100B246012890
:1010F00004D0022694E00220BDE8F88F002D7BD0BA
:10110000002F79D0032084F85100C4F854A025633F
:10111000A786E786C4F838A0A4F83CA0A4F83EA0AF
:10112000C4F844A0C4F840A0A068B0F5004F04D1B2
:101130002068016841F48041016020680168490627
:1011400003D4016841F040010160E068B0F5006F30
:10115000606804D030B3E08E012823D03EE010B1A7
:10116000E08E01281AD135F8021B206805E02068BE
:101170008168890706D535F8021BC160E08E401EE4
:10118000E0860BE0B9F1000F34D0B9F1FF3F05D094
:10119000FFF764FBA0EB080149452BD2E08E002845
:1011A000E5D11EE0216815F8010B087306E0206800
:1011B0008168890706D515F8011B0173E08E401E72
:1011C000E0860BE0B9F1000F14D0B9F1FF3F05D074
:1011D000FFF744FBA0EB080149450BD2E08E002845
:1011E000E5D14B46012202212046CDF8008000F0D7
:1011F000A4F910B1032613E011E042464946204607
:1012000000F08BF918B101262020606508E0A06885
:1012100018B92068C16880680090606D00B101262F
:1012200084F851B084F850A0304665E72DE9F84FB6
:10123000044690F8500000260A9F9A4693460D46B1
:101240004FF0010801280ED0012084F85000FFF76C
:1012500005FB814694F85100616801280CD0B1F576
:10126000827F07D102E00220BDE8F88FA16809B9AA
:10127000042801D00226BDE055B1BBF1000F07D014
:10128000BAF1000F04D094F85100012802D004E014
:101290000126AFE0052084F8510000206065C4F805
:1012A00038B0A4F83EA0A4F83CA02563A4F836A06A
:1012B000A4F834A02064606420680168490603D45F
:1012C000016841F040010160E068B0F5006F6068BE
:1012D00004D0E8B3E08E01283BD06AE010B1E08E84
:1012E00001282ED1216835F8020BC860E08E401E1F
:1012F000E08626E0B8F1000F0DD0E08E58B12068EE
:101300008168890707D535F8021BC160E08E401E51
:10131000E0864FF00008E08F58B120688168C90767
:1013200007D0C0682BF8020BE08F401EE0874FF01B
:101330000108781C05D0FFF791FAA0EB0900B8422C
:1013400046D2E08E0028D5D1E08F0028D2D136E0F9
:10135000FFE7216815F8010B0873E08E401EE08658
:1013600027E000BFB8F1000F0DD0E08E58B1206823
:101370008168890707D515F8011B0173E08E401EAF
:10138000E0864FF00008E08F58B120688168C907F7
:1013900007D0C0680BF8010BE08F401EE0874FF0CC
:1013A0000108781C05D0FFF759FAA0EB0900B842F4
:1013B0000ED2E08E0028D5D1E08F0028D2D13B4656
:1013C000012202212046CDF8009000F0B6F808B1C5
:1013D00003260FE04A463946204600F09EF818B131
:1013E00001262020606505E0A06818B92068C16862
:1013F00080680090012084F85100002084F850009B
:10140000304631E74FF0E0210428086903D020F08E
:1014100004000861704740F00400FAE7704710B517
:10142000401EB0F1807F01D3012010BD4FF0E024B9
:1014300060610F21601700F05FF80020A0610720B5
:101440002061002010BD10B5FFF7E8FF10BDFEE7DA
:1014500030B5164887B00024016841F004010160EE
:10146000016801F004010591016841F0010101608A
:10147000016801F001010591016841F0020101607C
:1014800000680B4D00F00200059000221021284654
:10149000FFF7DEF9102000900120CDE90104694634
:1014A00028460394FFF7FCF807B030BD30380240FF
:1014B000000002400E4810B50C4901604FF48271E3
:1014C000416000218160C1604FF400720161C0E998
:1014D0000512C1610162416281620A21C162FFF7A6
:1014E000D7FC002800D0FEE710BD00000038004007
:1014F00054000020FEE770470907090E002806DAAD
:1015000000F00F0000F1E02080F8141D704700F19A
:10151000E02080F800147047704738B50B46009201
:1015200004460022802100F008F8002804D0606DF5
:1015300040F020006065032038BD2DE9F0411D46D4
:1015400017460E460446DDF8188035E0681C33D097
:101550002DB1FFF783F9A0EB0800A8422CD3206837
:10156000416821F0E00141606068B0F5827F0BD1F5
:10157000A068B0F5004F02D0B0F5806F04D12068AC
:10158000016821F040010160A06AB0F5005F0AD156
:10159000206801684DF6FF72114001602068016803
:1015A00041F400510160012084F85100002084F8CA
:1015B00050000320BDE8F0812068806836EA000012
:1015C00004D00020B842C1D10020F3E70120F9E7A0
:1015D000704710B5FFF748F9BDE81040FFF733BF7B
:1015E00010B51F4892B00024016841F0805101609D
:1015F000006800F0805011901A48016841F4804161
:1016000001600068069400F4804011900220009070
:1016100001200390102004906846FFF7ABFA00B158
:10162000FEE70F20CDE90C040E940F9400210CA8C6
:101630001094FFF7CFF900B1FEE7FFF763FA4FF41C
:101640007A71B0FBF1F0FFF7EAFE0420FFF7DAFE53
:1016500000221146501EFFF78BF912B010BD00009A
:1016600040380240007000401048016841F47001A9
:1016700001600F48016841F0010101600C4A00213E
:101680000832116002680B4B1A400260031D0A4ABF
:101690001A60026822F48022026005480C30016062
:1016A00002495806803908607047000088ED00E064
:1016B00000380240FFFFF6FE10300024FEE702E093
:1016C00008C8121F08C1002AFAD1704770470020CD
:1016D00001E001C1121F002AFBD17047FFF7CCF8CF
:1016E000FFF77EFFFFF7B4FEFFF7E4FEFEF774FEA0
:1016F000FEF7CCFEFEF780FFFEF7C4FDFAE7000020
:1017000000000000000001020304060708090000B1
:10171000301700080000002054000000BE1600082A
:1017200084170008540000207C040000CE16000836
:1017300000000000000000000000000000000000A9
:101740000000000000000000000000000000000099
:101750000000000000000000000000000000000089
:101760000000000000000000000000000000000079
:101770000000000001000000100000000000000058
:041780000024F4004D
:040000050800018965
:00000001FF
